:1000000070EF28F00000000000EF00F0000000009A
:0A0010000000000000000000F3D71C
:08001C000AAE029E000E120064
:100024000B840BAE1DEF00F0010E036E026A016A31
:0A003400006A0A360232FF0E1200C5
:0E003E00026A016A006A086A036A000E120074
:10004C000B820BAE30EF00F00368026801680068A9
:08005C000A360232FF0E120009
:100064000CB074EF00F00CA21AEF01F00E6A000E4F
:1000740002648BEF00F0F00E0214D8A456EF00F0E7
:10008400023A01380F0B02260138F00B016E0038DA
:100094000F0B01260038F00B006E08380F0B0026FA
:1000A4000838F00B086E0E84D89002BE6FEF00F093
:1000B40008360036013602360E2A02BE6FEF00F013
:1000C40008360036013602360E2A02BE6FEF00F003
:1000D40008360036013602360E2A0E50036410EF3D
:1000E40001F0035E0BBC08AE15EF01F0D880800E62
:1000F40008640030000E002201220222D8A015EF6D
:1001040001F0023201320032034A1AEF01F015EF16
:1001140001F001C002F000C001F008C000F0086A5C
:10012400000E0E860264C2EF00F0F00E0214D8A492
:10013400AAEF00F0023A01380F0B02260138F00B47
:10014400016E00380F0B01260038F00B006E0E8490
:10015400D89002BE6FEF00F00036013602360E2A48
:1001640002BE6FEF00F00036013602360E2A02BEE0
:100174006FEF00F00036013602360E2A6FEF00F002
:1001840001C002F000C001F0006A000E0E960E8855
:100194000264EFEF00F0F00E0214D8A4DAEF00F0DE
:1001A400023A01380F0B02260138F00B016E0E845F
:1001B400D89002BE6FEF00F0013602360E2A02BE5E
:1001C4006FEF00F0013602360E2A02BE6FEF00F028
:1001D400013602360E2A6FEF00F001C002F0016A08
:1001E400000E0E8602641FEF01F0F00E0214D8A474
:1001F400FEEF00F0023A0E84D89002BE6FEF00F0DA
:1002040002360E2A02BE6FEF00F002360E2A02BE3C
:100214006FEF00F002360E2A6FEF00F0010E0C6E45
:10022400FFDE22EF01F0020E0C6EF6DE22EF01F08B
:10023400040E0C6E09DF22EF01F0080E0C6EFDDED9
:020244001200A6
:10024600BEC06FFF6DB002D00000FCD76FCF00F0CC
:02025600120094
:10025800BEC0C9FFC7B002D00000FCD7C9CF00F0AC
:02026800120082
:08026A000B6A0B86FF0E120067
:100272000B800BAE45EF01F0026A0AAEFF0E026E72
:0C028200016E006E0A360232FF0E120000
:10028E00F250026EF29E0500FF6A0150FE6E0050A3
:08029E00FD6E02BEF28E12009B
:1002A6000134083609360450085E0550D8A0053CCE
:1002B600095E003601360F0E0C6E0134083609361B
:1002C600045000A006D0085E0550D8A0053C095E83
:1002D60005D008260550D8B0053C0926003601365B
:1002E6000C2EEBD700B006D0045008260550D8B027
:0802F600053C0926000012007E
:1002FE00086A080E0C6E003408360450085ED8B03A
:0E030E0002D00826D89000360C2EF5D712002B
:10031C00086A096A000E0762036413EF02F00250C8
:10032C0006180A6E075003267E0ED8A0A4EF01F023
:10033C00035ED8B017EF02F0A8EF01F0035ED8A06F
:10034C001BEF02F0028E068E02C00EF001C00BF005
:10035C0000C00DF000500402F4CF0CF00150050267
:10036C00F4CF00F0F3CF08F00402F3500C26F45055
:10037C000822000E00220D500502F3500C26F450FA
:10038C000822000E002202500402F3500826F450FA
:10039C00002202500502016A000E0122F3500026D1
:1003AC00F45001220D500602F3500826F45000229E
:1003BC00026A000E012202220B500602F3500026A4
:1003CC00F4500122000E02220E500602F3500126B8
:1003DC00F450022202BEFBEF01F008360036013663
:1003EC0002360306D8B41BEF02F00EEF02F0D880F1
:1003FC00800E08640030000E002201220222D8A0D8
:10040C000EEF02F0023201320032034A17EF02F013
:10041C000AAE029E000E1DEF02F0010E0ADE1DEF69
:10042C0002F0020E0DDE1DEF02F0040EF5DD1200DF
:10043C000D6A086A0050D8B4000C04180A6E0ABE83
:10044C000D1E0B6A04AE02D0041E042A00AE02D0AC
:10045C00001E002A005004100A6E0ABE1FD0045061
:10046C00085E003600340836045008260036060EA6
:10047C000C6E00340836045000B0085E00A008264C
:10048C0000360C2EF6D700A008260BB015D00DAEFA
:10049C00000C001E002A081E082A000C04AE09D00D
:1004AC0000BE04D00050086E006AF1D7006A002A22
:1004BC00000C001E0B2AD3D7082A0450085CD8A4C1
:0E04CC00E6D7086A002A00AEE2D7FF0C120045
:0604DA000000000012000A
:1004E0000F0E0C6E470E0D6E0D2EFED70C2EFCD788
:0604F000000000001200F4
:0A04F600210E0D6E0D2EFED7120030
:10050000025006180E6E086A096A0B6A03500764E7
:1005100073EF03F006500A6E068E028E03500B6EC8
:100520000750036E000E0B64C3EF02F00B50075E22
:10053000D8B464EF03F0070E076432EF03F0075EF0
:1005400000C008F001C000F002C001F0026A074ECE
:1005500064EF03F0076407EF03F0075E00C008F0E4
:1005600001C000F0016A074E64EF03F00764E5EF95
:1005700002F0075E00C008F0006A074E64EF03F067
:100580000764CCEF02F00AC002F005C001F004C01D
:1005900000F0086A90EF04F0030E0764D7EF02F052
:1005A000075E08380F0B086E074E64EF03F0D89013
:1005B0000832074E64EF03F0D8900832074E64EF1C
:1005C00003F0D890083264EF03F0030E0764F6EFEF
:1005D00002F0075E08380F0B086E0038F00B082693
:1005E00000380F0B006E074E64EF03F0D890003216
:1005F0000832074E64EF03F0D89000320832074EFD
:1006000064EF03F0D8900032083264EF03F0030E79
:1006100007641EEF03F0075E08380F0B086E003802
:10062000F00B082600380F0B006E0138F00B002687
:1006300001380F0B016E074E64EF03F0D8900132C2
:1006400000320832074E64EF03F0D89001320032D6
:100650000832074E64EF03F0D890013200320832BE
:1006600064EF03F0030E07644FEF03F0075E0838F2
:100670000F0B086E0038F00B082600380F0B006EC9
:100680000138F00B002601380F0B016E0238F00B19
:10069000012602380F0B026E074E64EF03F0D8906C
:1006A0000232013200320832074E64EF03F0D89074
:1006B0000232013200320832074E64EF03F0D89064
:1006C0000232013200320832096A000E0EAE58EFD3
:1006D00004F0081E001E011E021E082A002201222C
:1006E000022258EF04F00750D8A479EF03F090EFFE
:1006F00004F0096A02C00AF0028E068E0750035CFD
:10070000076ED8B44BEF04F0070E076419EF04F03E
:10071000075E0450096E0550046E0650056E066AA9
:10072000074E4BEF04F0070E0764EEEF03F0075E91
:100730000450096E0550046E056A074E4BEF04F035
:10074000070E0764CCEF03F0075E0450096E046ADD
:10075000074E4BEF04F0070E0764B3EF03F00AC037
:1007600002F090EF04F0030E0764BEEF03F0075EA3
:1007700009380F0B096E074E4BEF04F0D890093281
:10078000074E4BEF04F0D8900932074E4BEF04F0C0
:10079000D89009324BEF04F0030E0764DDEF03F04D
:1007A000075E09380F0B096E0438F00B0926043870
:1007B0000F0B046E074E4BEF04F0D8900432093251
:1007C000074E4BEF04F0D89004320932074E4BEF3E
:1007D00004F0D890043209324BEF04F0030E0764A2
:1007E00005EF04F0075E09380F0B096E0438F00BB3
:1007F000092604380F0B046E0538F00B0426053863
:100800000F0B056E074E4BEF04F0D8900532043203
:100810000932074E4BEF04F0D8900532043209320A
:10082000074E4BEF04F0D8900532043209324BEFFB
:1008300004F0030E076436EF04F0075E09380F0B6F
:10084000096E0438F00B092604380F0B046E0538C6
:10085000F00B042605380F0B056E0638F00B052645
:1008600006380F0B066E074E4BEF04F0D890063299
:10087000053204320932074E4BEF04F0D8900632AD
:10088000053204320932074E4BEF04F0D89006329D
:10089000053204320932086A000E0EAE58EF04F039
:1008A000091E041E051E061E092A04220522062210
:1008B0000950082604500022055001220650022249
:1008C0000EBE6FEF04F0D8A07EEF04F002320132CA
:1008D00000320832033E7EEF04F08AEF04F0D8B015
:1008E00084EF04F0000E081E001E011E021E082ADE
:1008F0000022012202220A7E84EF04F0010E0C6E17
:1009000032EC00F092EF04F0020E0C6E32EC00F0CC
:1009100092EF04F0040E0C6E26EC00F092EF04F05F
:06092000000E0C6E120037
:100926000450000A08E10550000A05E1FF0E006EBA
:100936007F0E016E57D00D6A096A086A01500010D1
:10094600D8B4000C015005180A6E0ABE0D1E0B6ABB
:1009560005AE05D0041E051E042AD8B4052A01AE2C
:1009660005D0001E011E002AD8B4012A0150051028
:100976000A6E0ABE10D094DC0BB020D00DAE000C6F
:10098600001E011E002AD8B4012A081E091E082AC4
:10099600D8B4092A000C05AE0DD001BE07D001500F
:1009A600096E0050086E016A006AE8D7016A006A9B
:1009B600002A000C011E001E0B2ADDD7082AD8B417
:1009C600092A0450085CD8A4D9D70550095CD8A4D4
:1009D600D5D7096A086A002AD8B4012A01AECED74B
:0609E6000000FF0C1200EE
:1009EC000050086E0150006E0250016E0350026EF2
:1009FC00036A0B6A0C6A9E0E036E0A6A020E0C6E78
:060A0C0032EC00F01200C4
:100A12000001B751390806E3300EB75D03E3010E5A
:080A2200006E01D0006A120011
:100A2A000450000A12E10550000A0FE10650000ABC
:100A3A000CE10750000A09E1FF0E006EFF0E016E7D
:100A4A007F0E026EFF0E036EA8D0086A096A07506D
:100A5A00D8B4C0EF05F00350D8B4C5EF05F0025082
:100A6A0006180A6E028E068E0E6A02C008F001C0CF
:100A7A000CF000C00DF004500D5E0550D8A0053CE6
:100A8A000C5E0650D8A0063C085E086A0C6A0D6A1D
:100A9A00D8A057EF05F0D89002320132003208325E
:100AAA00010E0E6E0750035ED8A064EF05F07E0EAD
:100ABA000E240326D8B0CAEF05F06AEF05F07E0EC1
:100ACA000E240326D8A0CFEF05F0180E0B6E0D36B4
:100ADA000C3608360036013602360E360450005EF1
:100AEA000550D8A0053C015E0650D8A0063C025E1F
:100AFA0006340E120EA085EF05F00D8090EF05F07A
:100B0A00045000260550D8B0053C01260650D8B03E
:100B1A00062802260D900B2E6CEF05F0B6EF05F0B5
:100B2A00D8900036013602360E360450005E055063
:100B3A00D8A0053C015E0650D8A0063C025E0634E9
:100B4A000E10010B0D26D8B00C2AD8B4082AD8A446
:100B5A00B6EF05F008320C320D32032AD8B4CAEFC8
:100B6A0005F00AAE089E0850026E0C50016E0D5038
:100B7A00006ED2EF05F0010E35EC01F0D2EF05F070
:100B8A00020E1FEC00F0D2EF05F0040E26EC00F086
:0C0B9A00D2EF05F0080E12EC00F0120083
:100BA6006E0E0001B75DD8A0CAD0640E046EB7C041
:100BB60000F07FEC01F0120E0024056E066A000EAE
:100BC600062205C000F006C001F0000E06BEFF0EAC
:100BD600026E036E0036009001360236033600368A
:100BE6000090013602360336AA0E0024F66E530E26
:100BF6000120F76E000E0220F86E0900F5CF00F016
:100C06000900F5CF01F00900F5CF02F00900F5CF94
:100C160003F0000E046E000E056E000E066E7E0ECC
:100C2600076E8EEC01F000C0B8F001C0B9F002C04A
:100C3600BAF003C0BBF0640E046EB7C000F07FECE0
:100C460001F008C000F00A0E046E7FEC01F0090EF8
:100C56000024056E066A000E062205C000F006C0D6
:100C660001F0000E06BEFF0E026E036E0036009007
:100C76000136023603360036009001360236033658
:100C8600AA0E0024F66E530E0120F76E000E022007
:100C9600F86E0900F5CF00F00900F5CF01F0090064
:100CA600F5CF02F00900F5CF03F0B8C004F0B9C0E3
:100CB60005F0BAC006F0BBC007F08EEC01F000C02C
:100CC600B8F001C0B9F002C0BAF003C0BBF00A0E1A
:100CD600046EB7C000F07FEC01F008C000F000C061
:100CE60001F0000E026E036E046E013601900236AC
:100CF6000336043601360190023603360436AA0E50
:100D06000124F66E530E0220F76E000E0320F86ED5
:100D16000900F5CF00F00900F5CF01F00900F5CF85
:100D260002F00900F5CF03F0B8C004F0B9C005F031
:100D3600BAC006F0BBC007F08EEC01F0B1D0B751D7
:100D46000A08D8B07ED00A0E046EB7C000F07FEC59
:100D560001F0090E0024056E066A000E062205C083
:100D660000F006C001F0000E06BEFF0E026E036E16
:100D76000036009001360236033600360090013602
:100D860002360336AA0E0024F66E530E0120F76EC5
:100D9600000E0220F86E0900F5CF00F00900F5CF2D
:100DA60001F00900F5CF02F00900F5CF03F0000EBF
:100DB600046E000E056E000E066E7E0E076E8EEC3D
:100DC60001F000C0B8F001C0B9F002C0BAF003C02B
:100DD600BBF00A0E046EB7C000F07FEC01F008C04D
:100DE60000F000C001F0000E026E036E046E0136C4
:100DF6000190023603360436013601900236033678
:100E06000436AA0E0124F66E530E0220F76E000E6B
:100E16000320F86E0900F5CF00F00900F5CF01F0C8
:100E26000900F5CF02F00900F5CF03F0B8C004F0D1
:100E3600B9C005F0BAC006F0BBC007F08EEC01F0F1
:100E46002FD0B7C000F0000E016E026E036E0036A2
:100E5600009001360236033600360090013602361F
:100E66000336AA0E0024F66E530E0120F76E000E0E
:100E76000220F86E0900F5CF00F00900F5CF01F069
:100E86000900F5CF02F00900F5CF03F0000E046E5D
:100E9600000E056E000E066E7E0E076E8EEC01F0DD
:020EA600120038
:100EA8000B6A0A6A096A00500402F4CF09F0F3CF0A
:100EB80008F001500502F4CF0BF0F3CF0AF0005010
:100EC8000502F3500926F4500A22E86A0B22015061
:100ED8000402F3500926F4500A22E86A0B2208C0DB
:100EE80000F009C001F00AC002F00BC003F01200C4
:080EF800067E80EC02F01200FE
:100F00000001BCA755D0B8C0BDF0BD33BD9FBD33F7
:100F1000BD9FBD33BD9F050E016EB9C000F00150ED
:100F200004E000360090FF0FFBD70050BD13829005
:100F30007BC0E1FF7CC0E2FF020EE66E79C000F0EC
:100F40007AC001F047EC01F07BC0E1FF7CC0E2FF1A
:100F5000B7C0E6FF79C000F07AC001F047EC01F0BD
:100F60007BC0E1FF7CC0E2FFBDC0E6FF79C000F0BE
:100F70007AC001F047EC01F0050E016EB8C000F038
:100F8000015004E000360090FF0FFBD700C0BDF019
:100F90007BC0E1FF7CC0E2FF00C0E6FF79C000F04B
:100FA0007AC001F047EC01F082806DEC02F07FD056
:100FB000050E006EBAC0BDF0005005E00001BD3363
:100FC000BD9FFF0FFAD70001BBC000F000360090B4
:100FD00000360090003600900050BD1382907BC018
:100FE000E1FF7CC0E2FF020EE66E79C000F07AC03D
:100FF00001F047EC01F07BC0E1FF7CC0E2FFB7C02D
:10100000E6FF79C000F07AC001F047EC01F07BC048
:10101000E1FF7CC0E2FFBDC0E6FF79C000F07AC00E
:1010200001F047EC01F0BAC000F000360090003645
:10103000009000360090E00E001600C0BDF0080ED3
:101040000010016E01C0BDF0030E0001BA15006E64
:101050000150001200C0BDF07BC0E1FF7CC0E2FF88
:1010600000C0E6FF79C000F07AC001F047EC01F063
:10107000B9C0BDF07BC0E1FF7CC0E2FFB9C0E6FFB4
:1010800079C000F07AC001F047EC01F0B8C0BDF0C3
:101090007BC0E1FF7CC0E2FFB8C0E6FF79C000F092
:1010A0007AC001F047EC01F082806DEC02F0120092
:1010B00003500718D8A46CEF08F002500618D8A403
:1010C0006CEF08F001500518D8A46CEF08F0005040
:0E10D0000418D8B4D8841200D894120012006C
:1010DE000B6A0C6A0A6A086A0350D8B4F7EF08F074
:1010EE00028E9E0E035E03BE82EF08F0D8B482EF2E
:1010FE0008F0E7EF08F0036C080E035CD8A0B4EF1D
:10110E0008F0036E083600C008F001C000F002C0FF
:10111E0001F0026A080E035CD8A0B4EF08F0036E6B
:10112E00083600C008F001C000F0016A080E035C2A
:10113E00D8A0B4EF08F0036E083600C008F0006ABD
:10114E00080E035CD8A0B4EF08F0036E0836086AE8
:10115E000350D8A4D890C0EF08F00350D8B4C0EF15
:10116E0008F0D8900232013200320832032EB8EF66
:10117E0008F00BBC08A0D1EF08F0D8A0D1EF08F012
:10118E00082AD8B4002AD8B4012AD8B4022A02BE3A
:10119E00FBEF08F00AAEF7EF08F0021E011E001E6C
:1011AE00081E082AD8B4002AD8B4012AD8B4022AB4
:1011BE00F7EF08F0026A016A006A086AF7EF08F0B2
:1011CE000B800BAE01EF09F0026A0AAE01EF09F0D7
:1011DE00026E016E006E086E0A36023201EF09F0E1
:1011EE00000E0C6A02EF09F0010E0C6E39EC01F0E4
:1011FE0002EF09F0FF0E0250036E0150026E005016
:08120E00016E0850006E120091
:10121600800E0001B719006E800E000A005CD8B07F
:101226006DD1B7510008016E01C0B7F0800E0118EC
:10123600006E800E6E0A005CD8A0C0D0640E046EEC
:10124600B7C000F01EEC02F0120E0024056E000E70
:1012560000BEFF0E066E000E062205C000F006C098
:1012660001F0000E06BEFF0E026E036E0036009001
:101276000136023603360036009001360236033652
:10128600AA0E0024F66E530E0120F76E000E022001
:10129600F86E0900F5CFB8F00900F5CFB9F00900EE
:1012A600F5CFBAF00900F5CFBBF0640E046EB7C0F7
:1012B60000F01EEC02F008C000F00A0E046E1EECF0
:1012C60002F0090E0024056E000E00BEFF0E066E2B
:1012D600000E062205C000F006C001F0000E06BE94
:1012E600FF0E026E036E003600900136023603369C
:1012F60000360090013602360336AA0E0024F66E3A
:10130600530E0120F76E000E0220F86E0900F5CF8D
:1013160000F00900F5CF01F00900F5CF02F0090051
:10132600F5CF03F0B8C004F0B9C005F0BAC006F0B6
:10133600BBC007F08EEC01F000C0B8F001C0B9F0F8
:1013460002C0BAF003C0BBF00A0E046EB7C000F0CC
:101356001EEC02F008C000F000C001F0000E00BE56
:10136600FF0E026E036E046E0136019002360336DE
:10137600043601360190023603360436AA0E0124DD
:10138600F66E530E0220F76E000E0320F86E09006B
:10139600F5CF00F00900F5CF01F00900F5CF02F016
:1013A6000900F5CF03F0B8C004F0B9C005F0BAC023
:1013B60006F0BBC007F08EEC01F007D2800E0A0AD9
:1013C600006E800EB719005C71E20A0E046EB7C09B
:1013D60000F01EEC02F0090E0024056E000E00BEA1
:1013E600FF0E066E000E062205C000F006C001F0D4
:1013F600000E06BEFF0E026E036E0036009001362A
:101406000236033600360090013602360336AA0E3F
:101416000024F66E530E0120F76E000E0220F86EC1
:101426000900F5CFB8F00900F5CFB9F00900F5CFFE
:10143600BAF00900F5CFBBF00A0E046EB7C000F093
:101446001EEC02F008C000F000C001F0000E00BE65
:10145600FF0E026E036E046E0136019002360336ED
:10146600043601360190023603360436AA0E0124EC
:10147600F66E530E0220F76E000E0320F86E09007A
:10148600F5CF00F00900F5CF01F00900F5CF02F025
:101496000900F5CF03F0B8C004F0B9C005F0BAC032
:1014A60006F0BBC007F08EEC01F08FD1B7C000F09C
:1014B600000EB7BFFF0E016E026E036E003600907F
:1014C6000136023603360036009001360236033600
:1014D600AA0E0024F66E530E0120F76E000E0220AF
:1014E600F86E0900F5CF00F00900F5CF01F009000C
:1014F600F5CF02F00900F5CF03F067D1800EB719DA
:10150600006E800E6E0A005CD8A0C0D0640E046E19
:10151600B7C000F01EEC02F0120E0024056E000E9D
:1015260000BEFF0E066E000E062205C000F006C0C5
:1015360001F0000E06BEFF0E026E036E003600902E
:10154600013602360336003600900136023603367F
:10155600DE0E0024F66E530E0120F76E000E0220FA
:10156600F86E0900F5CFB8F00900F5CFB9F009001B
:10157600F5CFBAF00900F5CFBBF0640E046EB7C024
:1015860000F01EEC02F008C000F00A0E046E1EEC1D
:1015960002F0090E0024056E000E00BEFF0E066E58
:1015A600000E062205C000F006C001F0000E06BEC1
:1015B600FF0E026E036E00360090013602360336C9
:1015C60000360090013602360336DE0E0024F66E33
:1015D600530E0120F76E000E0220F86E0900F5CFBB
:1015E60000F00900F5CF01F00900F5CF02F009007F
:1015F600F5CF03F0B8C004F0B9C005F0BAC006F0E4
:10160600BBC007F08EEC01F000C0B8F001C0B9F025
:1016160002C0BAF003C0BBF00A0E046EB7C000F0F9
:101626001EEC02F008C000F000C001F0000E00BE83
:10163600FF0E026E036E046E01360190023603360B
:10164600043601360190023603360436DE0E0124D6
:10165600F66E530E0220F76E000E0320F86E090098
:10166600F5CF00F00900F5CF01F00900F5CF02F043
:101676000900F5CF03F0B8C004F0B9C005F0BAC050
:1016860006F0BBC007F08EEC01F09FD0800E0A0A70
:10169600006E800EB719005C71E20A0E046EB7C0C8
:1016A60000F01EEC02F0090E0024056E000E00BECE
:1016B600FF0E066E000E062205C000F006C001F001
:1016C600000E06BEFF0E026E036E00360090013657
:1016D6000236033600360090013602360336DE0E39
:1016E6000024F66E530E0120F76E000E0220F86EEF
:1016F6000900F5CFB8F00900F5CFB9F00900F5CF2C
:10170600BAF00900F5CFBBF00A0E046EB7C000F0C0
:101716001EEC02F008C000F000C001F0000E00BE92
:10172600FF0E026E036E046E01360190023603361A
:10173600043601360190023603360436DE0E0124E5
:10174600F66E530E0220F76E000E0320F86E0900A7
:10175600F5CF00F00900F5CF01F00900F5CF02F052
:101766000900F5CF03F0B8C004F0B9C005F0BAC05F
:1017760006F0BBC007F08EEC01F027D0B7C000F032
:10178600000EB7BFFF0E016E026E036E00360090AC
:10179600013602360336003600900136023603362D
:1017A600DE0E0024F66E530E0120F76E000E0220A8
:1017B600F86E0900F5CF00F00900F5CF01F0090039
:0C17C600F5CF02F00900F5CF03F012008F
:1017D2000A6A0350D8A40A800750D8A40A820A5081
:1017E200D8B44CEF0CF0030AD8B405EF0CF00AB0F1
:1017F20000EF0CF006AE4AEF0CF048EF0CF002AE30
:1018020048EF0CF04AEF0CF00250800B0A6E029E79
:101812000650800B069E0A18D8B416EF0CF00A5038
:10182200D8B448EF0CF04AEF0CF00750035CD8B480
:1018320020EF0CF0D8A03CEF0CF042EF0CF0065079
:10184200025CD8B42AEF0CF0D8A03CEF0CF042EFC7
:101852000CF00550015CD8B434EF0CF0D8A03CEF8A
:101862000CF042EF0CF00450005CD8B44CEF0CF0DA
:10187200D8B042EF0CF00A52D8B44AEF0CF048EF5D
:101882000CF00A52D8B448EF0CF04AEF0CF0D880B2
:0E1892001200D8901200D880D88412001200E4
:1018A0000B6A0C6A086A0350D8B4D4EF0CF002C07B
:1018B0000AF0028E9E0E035E03AEC4EF0CF0036CC2
:1018C000080E035CD8A091EF0CF0036E083600C040
:1018D00008F001C000F002C001F0026A080E035CCB
:1018E000D8A091EF0CF0036E083600C008F001C0DC
:1018F00000F0016A080E035CD8A091EF0CF0036EB3
:10190000083600C008F0006A080E035CD8A091EF0A
:101910000CF0036E0836086A0350D8A4D8909DEFE7
:101920000CF00350D8B49DEF0CF0D8900232013285
:1019300000320832032E95EF0CF00BBC08A0AEEF7E
:101940000CF0D8A0AEEF0CF0082AD8B4002AD8B416
:10195000012AD8B4022A02BED8EF0CF00AAED4EFA6
:101960000CF0021E011E001E081E082AD8B4002A10
:10197000D8B4012AD8B4022AD4EF0CF0026A016A62
:10198000006A086AD4EF0CF00B800BAEDFEF0CF0AE
:10199000026A0AAEDFEF0CF0026E016E006E086E96
:1019A0000A360232DFEF0CF00C6A000EE0EF0CF0AA
:1019B000010E0C6E000E39EC01F0E0EF0CF0FF0EA2
:1019C0000250036E0150026E0050016E0850006E0E
:0219D000120003
:1019D2000B6A0A6A096A086A0E6A033408360450F6
:1019E200085E0550D8A0053C095E0650D8A0063C0A
:1019F2000A5E0750D8A0073C0B5EE86AD8A0010E29
:101A02000E5E0336070E0C6E0334083609360A36AC
:101A12000B360E36045003A012D0085E0550D8A033
:101A2200053C095E0650D8A0063C0A5E0750D8A0C5
:101A3200073C0B5EE86AD8A0010E0E5E11D00826A4
:101A42000550D8B0053C09260650D8B0063C0A26F7
:101A52000750D8B0073C0B26E86AD8B0010E0E2614
:101A620003360C2ED1D70234083609360A360B3625
:101A72000E36045003A012D0085E0550D8A0053CD3
:101A8200095E0650D8A0063C0A5E0750D8A0073C63
:101A92000B5EE86AD8A0010E0E5E11D00826055032
:101AA200D8B0053C09260650D8B0063C0A26075095
:101AB200D8B0073C0B26E86AD8B0010E0E260236D3
:101AC200070E0C6E0234083609360A360B360E360D
:101AD200045002A012D0085E0550D8A0053C095E51
:101AE2000650D8A0063C0A5E0750D8A0073C0B5E01
:101AF200E86AD8A0010E0E5E11D008260550D8B0B3
:101B0200053C09260650D8B0063C0A260750D8B034
:101B1200073C0B26E86AD8B0010E0E2602360C2EC0
:101B2200D1D70134083609360A360B360E36045040
:101B320002A012D0085E0550D8A0053C095E0650EE
:101B4200D8A0063C0A5E0750D8A0073C0B5EE86AA4
:101B5200D8A0010E0E5E11D008260550D8B0053C63
:101B620009260650D8B0063C0A260750D8B0073CD2
:101B72000B26E86AD8B0010E0E260136070E0C6E4F
:101B82000134083609360A360B360E36045001A0E7
:101B920012D0085E0550D8A0053C095E0650D8A0B8
:101BA200063C0A5E0750D8A0073C0B5EE86AD8A044
:101BB200010E0E5E11D008260550D8B0053C09264C
:101BC2000650D8B0063C0A260750D8B0073C0B2670
:101BD200E86AD8B0010E0E2601360C2ED1D7003499
:101BE200083609360A360B360E36045001A012D0DA
:101BF200085E0550D8A0053C095E0650D8A0063CF8
:101C02000A5E0750D8A0073C0B5EE86AD8A0010E16
:101C12000E5E11D008260550D8B0053C09260650A4
:101C2200D8B0063C0A260750D8B0073C0B26E86A13
:101C3200D8B0010E0E260036070E0C6E00340836A0
:101C420009360A360B360E36045000A012D0085E52
:101C52000550D8A0053C095E0650D8A0063C0A5E95
:101C62000750D8A0073C0B5EE86AD8A0010E0E5EB2
:101C720011D008260550D8B0053C09260650D8B028
:101C8200063C0A260750D8B0073C0B26E86AD8B0B3
:101C9200010E0E2600360C2ED1D700B00ED0045005
:101CA20008260550D8B0053C09260650D8B0063C97
:0C1CB2000A260750D8B0073C0B26120091
:101CBE000001B7BF02D0819601D08186B7BD02D098
:101CCE00819401D08184B7BB02D0819201D08182F0
:101CDE00B7B902D0819001D0818060B102D08188E5
:101CEE0001D08198818A6DEC02F0819AB7B702D04B
:101CFE00819601D08186B7B502D0819401D08184BE
:101D0E00B7B302D0819201D08182B7B102D0819057
:101D1E0001D0818060B102D0818801D08198818A02
:101D2E006DEC02F0819A60A103D070EC02F002D04B
:061D3E007BEC02F0120034
:101D4400000190A770D082907BC0E1FF7CC0E2FFCD
:101D5400030EE66E79C000F07AC001F047EC01F0A2
:101D64007BC0E1FF7CC0E2FF8FC0E6FF79C000F0DA
:101D74007AC001F047EC01F07BC0E1FF7CC0E2FFD8
:101D8400E66A79C000F07AC001F047EC01F000C0C7
:101D940092F0050E016E00C093F0000E0001946FE6
:101DA400956F966F015004E09333939FFF0FFBD719
:101DB400000E946F956F966F95C096F094C095F051
:101DC40093C094F0936B00C001F00136019001368A
:101DD40001900136019001509313000E9413951352
:101DE40096137BC0E1FF7CC0E2FFE66A79C000F095
:101DF4007AC001F047EC01F000C092F082806DECF3
:101E040002F0050E016E92C000F0015004E00032B1
:101E1400009EFF0FFBD7005000019313000E941394
:101E240095139613B3D0936B946B956B966B8290CA
:101E34007BC0E1FF7CC0E2FF030EE66E79C000F0D8
:101E44007AC001F047EC01F07BC0E1FF7CC0E2FF07
:101E54008FC0E6FF79C000F07AC001F047EC01F0D2
:101E64007BC0E1FF7CC0E2FFE66A79C000F07AC083
:101E740001F047EC01F000C092F0050E016E00C0C5
:101E840091F0015005E0000191379191FF0FFAD7CD
:101E94000001030E016E00C093F0000E946F956F65
:101EA400966F015004E09333939FFF0FFBD7000E0E
:101EB400946F956F966F95C096F094C095F093C00B
:101EC40094F0936B7BC0E1FF7CC0E2FFE66A79C0CB
:101ED40000F07AC001F047EC01F000C092F0030E6C
:101EE4000014016E000191510110036E03C091F0C2
:101EF400E00E0014026E02C000F00032009E0032B8
:101F0400009E0032009E0350001200C091F0005069
:101F14009313000E94139513961395C096F094C0E2
:101F240095F093C094F0936B7BC0E1FF7CC0E2FF1B
:101F3400E66A79C000F07AC001F047EC01F000C015
:101F440092F0005000019313000E9413951396130E
:101F540095C096F094C095F093C094F0936B7BC0B9
:101F6400E1FF7CC0E2FFE66A79C000F07AC001F0CC
:101F740047EC01F000C092F082806DEC02F00001A9
:101F840092519313000E94139513961393C000F07B
:0E1F940094C001F095C002F096C003F0120058
:0E1FA200000160918FC0B7F089DE60811200EF
:0E1FB000ACB202D00000FCD78FC0ADFF120013
:0C1FBE000E0E0D6E0D2EFED7000012005E
:101FCA000001AF6BB06BA36BA46B91C000F092C021
:101FDA0001F093C002F0010E9127000E9223932381
:101FEA0000C0F6FF01C0F7FF02C0F8FF0900F5CFF5
:101FFA0000F000C0A0F00052D8B4F5EF1FF0A051D5
:10200A00250A0BE08FC0E1FF90C0E2FFA0C0E6FF07
:10201A008F4B902BAF4BB02BD8D7A16BA26BA36B76
:10202A00A46B23D0A387010E9127000E922393233A
:10203A0059D0A381010E9127000E9223932352D0E7
:10204A00A383010E9127000E922393234BD0A487DA
:10205A00010E9127000E9223932344D0A385010EEB
:10206A009127000E922393233DD091C0F6FF92C090
:10207A00F7FF93C0F8FF0900F5CF01F001502D0AD0
:10208A00D1E091C0F6FF92C0F7FF93C0F8FF0900B4
:10209A00F5CF01F00150200ACCE091C0F6FF92C0C2
:1020AA00F7FF93C0F8FF0900F5CF01F001502B0AA2
:1020BA00C7E091C0F6FF92C0F7FF93C0F8FF09008E
:1020CA00F5CF01F00150230AC2E091C0F6FF92C099
:1020DA00F7FF93C0F8FF0900F5CF01F00150300A6D
:1020EA00BDE001D09ED7A3A301D0A391A3A701D09D
:1020FA00A39591C0F6FF92C0F7FF93C0F8FF0900BD
:10210A00F5CF00F0000E016E00C0B7F009EC05F043
:10211A00005236E0A16BA26BA1C000F0A2C001F090
:10212A000A0E046E000E056E54EC07F091C0F6FF1D
:10213A0092C0F7FF93C0F8FF0900F5CF02F00250F2
:10214A000024A16F000E0120A26F300EA15F000EC5
:10215A00A25B010E9127000E9223932391C0F6FFF2
:10216A0092C0F7FF93C0F8FF0900F5CF00F0000E08
:10217A00016E00C0B7F009EC05F00052CDE133D092
:10218A0091C0F6FF92C0F7FF93C0F8FF0900F5CFA0
:10219A0001F001502A0A27E194C0E9FF95C0EAFF3D
:1021AA00EECF00F0EECF01F000C0E9FF01C0EAFF78
:1021BA00EECFA1F0EECFA2F094C0E9FF95C0EAFFFE
:1021CA00020EEE24006E000EEE20016E94C0E1FFB6
:1021DA0095C0E2FF00C0E6FF01C0E6FF010E9127AD
:1021EA00000E9223932391C0F6FF92C0F7FF93C08B
:1021FA00F8FF0900F5CF01F001502E0A70E1010E37
:10220A009127000E9223932391C0F6FF92C0F7FF05
:10221A0093C0F8FF0900F5CF01F001502A0A28E11E
:10222A0094C0E9FF95C0EAFFEECF00F0EECF01F0CF
:10223A0000C0E9FF01C0EAFFEECF9EF0EECF9FF0AB
:10224A0094C0E9FF95C0EAFF020EEE24006E000E6C
:10225A00EE20016E94C0E1FF95C0E2FF00C0E6FFE8
:10226A0001C0E6FF010E9127000E9223932336D078
:10227A009E6B9F6B91C0F6FF92C0F7FF93C0F8FF69
:10228A000900F5CF00F0000E016E00C0B7F009ECAE
:10229A0005F0005223E09EC000F09FC001F00A0E34
:1022AA00046E000E056E54EC07F091C0F6FF92C062
:1022BA00F7FF93C0F8FF0900F5CF02F0025000249F
:1022CA009E6F000E01209F6F300E9E5F000E9F5B77
:1022DA00010E9127000E92239323CCD703D09E6B35
:1022EA009F6BA48991C000F092C001F093C002F0E4
:1022FA00010E9127000E9223932300C0F6FF01C01E
:10230A00F7FF02C0F8FF0900F5CFA0F0F9D0AFC07F
:10231A0000F0B0C001F0F9EF1FF0A389E3D7A4855C
:10232A002ED1A38BA4812BD1A48329D1A38D27D10C
:10233A0026D1A38BA38F23D194C0E9FF95C0EAFFCE
:10234A00EECF00F0EECF01F000C0E9FF01C0EAFFD6
:10235A00EECFABF0EECFACF094C0E9FF95C0EAFF48
:10236A00020EEE24006E000EEE20016E94C0E1FF14
:10237A0095C0E2FF00C0E6FF01C0E6FF000EAC19FF
:10238A0002E1000EAB1904E12C0EAB6F000EAC6F2C
:10239A00AD6BAE6BAD51AB25E96EAE51AC21EA6EB9
:1023AA00EE520BE0010EAD25006E000EAE21016E5D
:1023BA0000C0ADF001C0AEF0EDD79E519F110AE00A
:1023CA00AE519F5D02E1AD519E5D04E29EC0ADF04B
:1023DA009FC0AEF0A251AE5D02E1A151AD5D05E232
:1023EA00AD51A15FAE51A25B02D0A16BA26BA3B7A4
:1023FA0016D0A1C000F0A2C001F0010EA15F000E2C
:10240A00A25B005001100BE08FC0E1FF90C0E2FF19
:10241A00200EE66E8F4B902BAF4BB02BEAD7ADC098
:10242A0002F0AEC003F0010EAD5D006E000EAE59B3
:10243A00016E00C0ADF001C0AEF00250031019E009
:10244A00ABC0E9FFACC0EAFF8FC0E1FF90C0E2FF7A
:10245A00EECFE6FF8F4B902B010EAB25006E000EE0
:10246A00AC21016E00C0ABF001C0ACF0AF4BB02B99
:10247A00D6D7A3A716D0A1C000F0A2C001F0010EC2
:10248A00A15F000EA25B005001100BE08FC0E1FFBC
:10249A0090C0E2FF200EE66E8F4B902BAF4BB02B15
:1024AA00EAD793D594C0E9FF95C0EAFFEECF00F0D2
:1024BA00EECF01F000C0E9FF01C0EAFFEECFA0F0C5
:1024CA0094C0E9FF95C0EAFF020EEE24006E000EEA
:1024DA00EE20016E94C0E1FF95C0E2FF00C0E6FF66
:1024EA0001C0E6FFA00EAB6F000EAC6F010EAD6F20
:1024FA00000EAE6F62D7C00EA313000EA4133FD016
:10250A00A051000AD8B403D7A0516C0AD8B405D791
:10251A00A0514C0AD8B401D7A051660AD8B4FFD644
:10252A00A051450AD8B4FDD6A051650AD8B4FAD646
:10253A00A051670AD8B4F8D6A0516F0AD8B4F6D613
:10254A00A051640AD8B4F4D6A051690AD8B4F0D616
:10255A00A051700AD8B4EDD6A051580AD8B4E9D619
:10256A00A051780AD8B4E6D6A051730AD8B4E4D6F2
:10257A00A051630A97E0A051750ABDE0B3D7000ED7
:10258A00A315006EA451070B016E00500110D8B4B8
:10259A009CEF1BF0A4A904D0060E9E6F000E9F6F3D
:1025AA0094C0E9FF95C0EAFFEECF00F0EECF01F04C
:1025BA0000C0E9FF01C0EAFFEECFA5F0EECFA6F01A
:1025CA00EECFA7F0EECFA8F094C0E9FF95C0EAFFDE
:1025DA00040EEE24006E000EEE20016E94C0E1FFA0
:1025EA0095C0E2FF00C0E6FF01C0E6FF046A056A83
:1025FA00066A076AA5C000F0A6C001F0A7C002F0EB
:10260A00A8C003F0E9EC0BF0010ED8B0000E006E82
:10261A00005205E0A77F030EA313000EA413A96BB3
:10262A00AA6BA5C000F0A6C001F0A7C002F0A8C01E
:10263A0003F0046A056A066A076A58EC08F0000E95
:10264A00D8A4010E006E0052D8B48AD0A8C000F0F7
:10265A00016A026A036AFF0E0016000E01167E0E58
:10266A00005E000E015A00C0A9F001C0AAF0010ED6
:10267A00005E000E015A00C0A9F001C0AAF0030EC4
:10268A00046E000E056E54EC07F000C0A9F001C0FC
:10269A00AAF00A0E046E000E056E93EC04F000C058
:1026AA00A9F001C0AAF0800E0118026E800E025C29
:1026BA0002E1000E005C05E2010E0001A95F000EB6
:1026CA00AA5B0001A9510008B76F0BEC09F0A5C07D
:1026DA0004F0A6C005F0A7C006F0A8C007F08EEC6B
:1026EA0001F000C0ABF001C0ACF002C0ADF003C015
:1026FA00AEF0000E046E000E056E000E066E7F0E22
:10270A00076EABC000F0ACC001F0ADC002F0AEC0C5
:10271A0003F0E9EC0BF0010ED8B0000E006E005287
:10272A0005E0010EA95F000EAA5B1AD0000E046E26
:10273A00000E056E200E066E820E076EABC000F00C
:10274A00ACC001F0ADC002F0AEC003F0E9EC0BF092
:10275A00000ED8B0010E006E005202E0A94BAA2B5F
:10276A00800E006E800EAA19005C02E1A9510008D1
:10277A0003E3010EA06F02D0A9C0A0F0A4B118D043
:10278A00A4A315D0800EAA19006E7F0E005C02E188
:10279A00FC0EA95D0BE3800EAA19006E800E9F192C
:1027AA00005C02E19E51A95D01E201D001D0F1D3A2
:1027BA009E519F1106E0A4A304D0010E9E5F000E55
:1027CA009F5B000E006E9F51005C02E19E5108085B
:1027DA0003E2080EA06F02D09EC0A0F0A5C000F0D0
:1027EA00A6C001F0A7C002F0A8C003F0046A056AF7
:1027FA00066A076A58EC08F0000ED8A4010E006EAB
:10280A000052D8B44BD1A9C0B7F00BEC09F000C004
:10281A0004F001C005F002C006F003C007F0A5C02D
:10282A0000F0A6C001F0A7C002F0A8C003F015ECA2
:10283A0005F000C0A5F001C0A6F002C0A7F003C0D1
:10284A00A8F00001A0510008B76F0BEC09F000C016
:10285A0004F001C005F002C006F003C007F0A5C0ED
:10286A0000F0A6C001F0A7C002F0A8C003F015EC62
:10287A0005F000C0B1F001C0B2F002C0B3F003C06D
:10288A00B4F0B1C0A5F0B2C0A6F0B3C0A7F0B4C00E
:10289A00A8F0B1C000F0B2C001F0B3C002F0B4C0F9
:1028AA0003F06FEC08F0F6EC04F000C004F001C08D
:1028BA0005F002C006F003C007F0B1C000F0B2C0D4
:1028CA0001F0B3C002F0B4C003F07CEC07F0000ED4
:1028DA00046E000E056E000E066E7E0E076EE9ECA3
:1028EA000BF0000ED8B0010E006E00521AE0A5C01F
:1028FA0000F0A6C001F0A7C002F0A8C003F0000EC5
:10290A00046E000E056E000E066E7E0E076E80ECDB
:10291A0002F000C0A5F001C0A6F002C0A7F003C0F3
:10292A00A8F0A5C000F0A6C001F0A7C002F0A8C098
:10293A0003F06FEC08F00001A051010F096E0A6A5A
:10294A00000E0A2209C004F00AC005F0000E0ABEF1
:10295A00FF0E066E076E04360490053606360736F5
:10296A0004360490053606360736420E0424F66EFF
:10297A00540E0520F76E000E0620F86E0900F5CFFA
:10298A0005F00900F5CF06F00900F5CF07F00900B8
:10299A00F5CF08F00850035C08E10750025C05E136
:1029AA000650015C02E10550005C1EE30001A5C06F
:1029BA0000F0A6C001F0A7C002F0A8C003F0CD0E37
:1029CA00046ECC0E056E4C0E066E7B0E076E8EECF8
:1029DA0001F000C0A5F001C0A6F002C0A7F003C034
:1029EA00A8F0A94BAA2B5AD0A5C000F0A6C001F0A6
:1029FA00A7C002F0A8C003F06FEC08F0A0C004F072
:102A0A00000E056E066E076E04360490053606360D
:102A1A00073604360490053606360736420E042475
:102A2A00F66E540E0520F76E000E0620F86E0900A9
:102A3A00F5CF05F00900F5CF06F00900F5CF07F04C
:102A4A000900F5CF08F00850035C08E10750025C62
:102A5A0005E10650015C02E10550005C1FE200013D
:102A6A00A5C000F0A6C001F0A7C002F0A8C003F0FC
:102A7A00000E046E000E056E200E066E820E076EA4
:102A8A008EEC01F000C0A5F001C0A6F002C0A7F0CC
:102A9A0003C0A8F0010EA95F000EAA5B0001A4A35F
:102AAA0093D0A4B791D0800E000A006E800E9F19B1
:102ABA00005C02E19E510A0804E20A0E9E6F000EB3
:102ACA009F6FA5C000F0A6C001F0A7C002F0A8C081
:102ADA0003F06FEC08F000C0ABF001C0ACF002C02C
:102AEA00ADF003C0AEF0AB51AC11AD11AE1142E086
:102AFA000A0E046E000E056E066E076EABC000F07D
:102B0A00ACC001F0ADC002F0AEC003F0E9EC0CF0CD
:102B1A0008C000F009C001F00AC002F00BC003F0BF
:102B2A00000E046E031808E10450021805E104506F
:102B3A00011802E10050000A1DE1010E9E5F000E1D
:102B4A009F5B0A0E046E000E056E066E076EABC022
:102B5A0000F0ACC001F0ADC002F0AEC003F0E9EC89
:102B6A000CF000C0ABF001C0ACF002C0ADF003C085
:102B7A00AEF0B9D7800E9F19006E800E005C02E19C
:102B8A00A0519E5D21E29E51A05DB76F0BEC09F04A
:102B9A0000C004F001C005F002C006F003C007F04F
:102BAA00A5C000F0A6C001F0A7C002F0A8C003F0BB
:102BBA0015EC05F000C0A5F001C0A6F002C0A7F010
:102BCA0003C0A8F09EC0A0F0050E00019E25006E6D
:102BDA00000E9F21016E0050A15F0150A25B9E5121
:102BEA009F1103E1A4B701D004D0010EA15F000E2A
:102BFA00A25B030EA315006EA4C001F0000E01161D
:102C0A000050011004E0010EA15F000EA25BA3A513
:102C1A0039D0A3A312D0A3A103D02D0E966F02D050
:102C2A002B0E966F8FC0E1FF90C0E2FF96C0E6FFC1
:102C3A008F4B902BAF4BB02B0CD0A3A10AD08FC0D7
:102C4A00E1FF90C0E2FF200EE66E8F4B902BAF4B58
:102C5A00B02B800E006E800EA219005C02E1A15119
:102C6A0000080FE28FC0E1FF90C0E2FF300EE66E6F
:102C7A008F4B902BAF4BB02B010EA15F000EA25BC6
:102C8A00E8D73AD0A3B718D0800E006E800EA219EA
:102C9A00005C02E1A15100080FE28FC0E1FF90C081
:102CAA00E2FF200EE66E8F4B902BAF4BB02B010E3E
:102CBA00A15F000EA25BE8D7A3A312D0A3A103D001
:102CCA002D0E976F02D02B0E976F8FC0E1FF90C029
:102CDA00E2FF97C0E6FF8F4B902BAF4BB02B0CD087
:102CEA00A3A10AD08FC0E1FF90C0E2FF200EE66EDA
:102CFA008F4B902BAF4BB02BA5C000F0A6C001F0B4
:102D0A00A7C002F0A8C003F06FEC08F000C0ABF057
:102D1A0001C0ACF002C0ADF003C0AEF0A0C000F03C
:102D2A00000E016E026E036E003600900136023606
:102D3A00033600360090013602360336420E00246E
:102D4A00F66E540E0120F76E000E0220F86E09008E
:102D5A00F5CF04F00900F5CF05F00900F5CF06F02C
:102D6A000900F5CF07F0ABC000F0ACC001F0ADC070
:102D7A0002F0AEC003F0E9EC0CF0300E00268FC072
:102D8A00E1FF90C0E2FF00C0E6FF8F4B902BAF4BF4
:102D9A00B02B9E519F1103E1A4B701D06FD08FC011
:102DAA00E1FF90C0E2FF2E0EE66E8F4B902BAF4BE9
:102DBA00B02BA0519E5F000E9F5BA0534DE0A00771
:102DCA00A0C000F0000E016E026E036E0036009085
:102DDA0001360236033600360090013602360336D3
:102DEA00420E0024F66E540E0120F76E000E0220E9
:102DFA00F86E0900F5CF04F00900F5CF05F00900D7
:102E0A00F5CF06F00900F5CF07F0ABC000F0ACC073
:102E1A0001F0ADC002F0AEC003F0E9EC0CF00A0E0E
:102E2A00046E000E056E066E076EE9EC0CF008C023
:102E3A0000F009C001F00AC002F00BC003F0300E26
:102E4A0000268FC0E1FF90C0E2FF00C0E6FF8F4B73
:102E5A00902BAF4BB02BB1D79E519F110FE08FC073
:102E6A00E1FF90C0E2FF300EE66E8F4B902BAF4B26
:102E7A00B02B010E9E5F000E9F5BEED7A3AB0BD06B
:102E8A008FC0E1FF90C0E2FF450EE66E8F4B902B9C
:102E9A00AF4BB02B0AD08FC0E1FF90C0E2FF650EA6
:102EAA00E66E8F4B902BAF4BB02B800EAA19006E9B
:102EBA00800E005C02E1000EA95D11E2A951000832
:102ECA00A96FAA51000EAA578FC0E1FF90C0E2FF76
:102EDA002D0EE66E8F4B902BAF4BB02B0AD08FC0C6
:102EEA00E1FF90C0E2FF2B0EE66E8F4B902BAF4BAB
:102EFA00B02B0A0E046E000E056EA9C000F0AAC01F
:102F0A0001F093EC04F0300E00268FC0E1FF90C070
:102F1A00E2FF00C0E6FF00018F4B902BAF4BB02BB6
:102F2A000A0E046E000E056EA9C000F0AAC001F0D8
:102F3A0093EC04F008C000F009C001F0300E00263E
:102F4A008FC0E1FF90C0E2FF00C0E6FF00018F4B97
:102F5A00902BAF4BB02BA3A71AD0800E006E800E19
:102F6A00A219005C02E1A151000811E28FC0E1FF41
:102F7A0090C0E2FF200EE66E8F4B902BAF4BB02B2A
:102F8A00010EA15F000EA25BA151A211EFE1EAEFCF
:102F9A000FF0A4A3F3D0800EAA19006E800E005C75
:102FAA0002E1000EA95D0AE2010EA95D006E000EA3
:102FBA00AA59016E00509E5F01509F5BA5C000F0A8
:102FCA00A6C001F0A7C002F0A8C003F06FEC08F099
:102FDA0000C0ABF001C0ACF002C0ADF003C0AEF06F
:102FEA00010EA06FA0510A0A34E0A0C000F0000E42
:102FFA00016E026E036E0036009001360236033609
:10300A0000360090013602360336420E0024F66E70
:10301A00540E0120F76E000E0220F86E0900F5CF5B
:10302A0001F00900F5CF02F00900F5CF03F009001D
:10303A00F5CF04F00450AE5D08E10350AD5D05E143
:10304A000250AC5D02E10150AB5D01E202D0A02B5F
:10305A00C9D7A0519E5DB56F000E9F59B66FB5C016
:10306A009EF0B6C09FF0ABC000F0ACC001F0ADC09E
:10307A0002F0AEC003F0F6EC04F000C004F001C0A8
:10308A0005F002C006F003C007F0A5C000F0A6C014
:10309A0001F0A7C002F0A8C003F07CEC07F000C062
:1030AA00B1F001C0B2F002C0B3F003C0B4F0B5C0D1
:1030BA00B7F00BEC09F0B1C004F0B2C005F0B3C030
:1030CA0006F0B4C007F08EEC01F0000E046E000E9C
:1030DA00056E000E066E7E0E076E80EC02F06FEC37
:1030EA0008F000C0ABF001C0ACF002C0ADF003C004
:1030FA00AEF09E519F1142E00A0E046E000E056E5C
:10310A00066E076EABC000F0ACC001F0ADC002F0B5
:10311A00AEC003F0E9EC0CF008C000F009C001F001
:10312A000AC002F00BC003F0000E046E031808E197
:10313A000450021805E10450011802E10050000A87
:10314A001DE10A0E046E000E056E066E076EABC018
:10315A0000F0ACC001F0ADC002F0AEC003F0E9EC83
:10316A000CF000C0ABF001C0ACF002C0ADF003C07F
:10317A00AEF0010E9E5F000E9F5BBBD7800E006E05
:10318A00800E9F19005C02E19E510C0816E39EC056
:10319A00B7F0D3EC05F0A5C004F0A6C005F0A7C0AF
:1031AA0006F0A8C007F080EC02F000C0A5F001C04C
:1031BA00A6F002C0A7F003C0A8F0A5C000F0A6C000
:1031CA0001F0A7C002F0A8C003F0046A056A066A03
:1031DA00076A58EC08F0000ED8A4010E006E0052DF
:1031EA00D8B477D0A5C000F0A6C001F0A7C002F0FD
:1031FA00A8C003F06FEC08F0000E046E031808E193
:10320A000450021805E10450011802E10050000AB6
:10321A0060E1800E006E800EAA19005C02E1A951DD
:10322A00010857E2A9C0B7F00BEC09F000C004F09E
:10323A0001C005F002C006F003C007F0A5C000F007
:10324A00A6C001F0A7C002F0A8C003F015EC05F073
:10325A005F0E046E700E056E090E066E810E076E05
:10326A00E9EC0BF0010ED8B0000E006E005206E039
:10327A00090E0001A95F000EAA5B05D00001080E25
:10328A00A95F000EAA5BA9C0B7F00BEC09F000C059
:10329A0004F001C005F002C006F003C007F0A5C0A3
:1032AA0000F0A6C001F0A7C002F0A8C003F015EC18
:1032BA0005F06FEC08F000C0ABF001C0ACF002C042
:1032CA00ADF003C0AEF00001A56BA66BA76BA86BAF
:1032DA0038D0A5C000F0A6C001F0A7C002F0A8C06F
:1032EA0003F06FEC08F000C0ABF001C0ACF002C014
:1032FA00ADF003C0AEF0ABC000F0ACC001F0ADC0A1
:10330A0002F0AEC003F0F6EC04F000C004F001C015
:10331A0005F002C006F003C007F0A5C000F0A6C081
:10332A0001F0A7C002F0A8C003F07CEC07F000C0CF
:10333A00A5F001C0A6F002C0A7F003C0A8F0A96BCF
:10334A00AA6B010EA06FA0510A0A34E0A0C000F0D7
:10335A00000E016E026E036E0036009001360236D0
:10336A00033600360090013602360336420E002438
:10337A00F66E540E0120F76E000E0220F86E090058
:10338A00F5CF01F00900F5CF02F00900F5CF03F0FF
:10339A000900F5CF04F00450AE5D08E10350AD5DBD
:1033AA0005E10250AC5D02E10150AB5D01E202D0E1
:1033BA00A02BC9D7A0519E25006E000E9F21016E39
:1033CA00A9510026AA5101220050A15F0150A25B17
:1033DA00A4B704D09E519F1101E104D0010EA15F50
:1033EA00000EA25B030EA315006EA4C001F0000E2E
:1033FA0001160050011004E0010EA15F000EA25B4D
:10340A00A3A539D0A3A312D0A3A103D02D0E986FE0
:10341A0002D02B0E986F8FC0E1FF90C0E2FF98C0D8
:10342A00E6FF8F4B902BAF4BB02B0CD0A3A10AD049
:10343A008FC0E1FF90C0E2FF200EE66E8F4B902B0B
:10344A00AF4BB02B800E006E800EA219005C02E119
:10345A00A15100080FE28FC0E1FF90C0E2FF300ED9
:10346A00E66E8F4B902BAF4BB02B010EA15F000E77
:10347A00A25BE8D73AD0A3B718D0800E006E800EB0
:10348A00A219005C02E1A15100080FE28FC0E1FF1E
:10349A0090C0E2FF200EE66E8F4B902BAF4BB02B05
:1034AA00010EA15F000EA25BE8D7A3A312D0A3A1CD
:1034BA0003D02D0E996F02D02B0E996F8FC0E1FFAA
:1034CA0090C0E2FF99C0E6FF8F4B902BAF4BB02B19
:1034DA000CD0A3A10AD08FC0E1FF90C0E2FF200E5A
:1034EA00E66E8F4B902BAF4BB02BA0C000F0A0071D
:1034FA0000524CE0A0C000F0000E016E026E036E96
:10350A000036009001360236033600360090013646
:10351A0002360336420E0024F66E540E0120F76E70
:10352A00000E0220F86E0900F5CF04F00900F5CF6D
:10353A0005F00900F5CF06F00900F5CF07F0ABC09A
:10354A0000F0ACC001F0ADC002F0AEC003F0E9EC8F
:10355A000CF00A0E046E000E056E066E076EE9EC9C
:10356A000CF008C000F009C001F00AC002F00BC05C
:10357A0003F0300E00268FC0E1FF90C0E2FF00C0CA
:10358A00E6FF8F4B902BAF4BB02BAFD7800E006E60
:10359A00800EAA19005C02E1A95100080FE28FC04F
:1035AA00E1FF90C0E2FF300EE66E8F4B902BAF4BDF
:1035BA00B02B010EA95F000EAA5BE8D7800E000AA5
:1035CA00006E800E9F19005C02E19E51080803E21A
:1035DA00080EA06F02D09EC0A0F0A0519E5F000E00
:1035EA009F5BA05303E1A4B701D00AD08FC0E1FFCB
:1035FA0090C0E2FF2E0EE66E8F4B902BAF4BB02B96
:10360A00A0C0B7F00BEC09F0A5C004F0A6C005F005
:10361A00A7C006F0A8C007F08EEC01F050EC0CF041
:10362A0000C0ABF001C0ACF002C0ADF003C0AEF018
:10363A00A0534DE0A007A0C000F0000E016E026E7C
:10364A00036E0036009001360236033600360090CB
:10365A00013602360336420E0024F66E540E01205D
:10366A00F76E000E0220F86E0900F5CF04F009008B
:10367A00F5CF05F00900F5CF06F00900F5CF07F000
:10368A00ABC000F0ACC001F0ADC002F0AEC003F0B8
:10369A00E9EC0CF00A0E046E000E056E066E076E5B
:1036AA00E9EC0CF008C000F009C001F00AC002F011
:1036BA000BC003F0300E00268FC0E1FF90C0E2FF7E
:1036CA0000C0E6FF8F4B902BAF4BB02BB1D79E516A
:1036DA009F110FE08FC0E1FF90C0E2FF300EE66E4F
:1036EA008F4B902BAF4BB02B010E9E5F000E9F5B52
:1036FA00EED7A3A71AD0800E006E800EA219005C26
:10370A0002E1A151000811E28FC0E1FF90C0E2FF7F
:10371A00200EE66E8F4B902BAF4BB02B010EA15FA4
:10372A00000EA25BA151A211EFE1EAEF0FF0C00E69
:10373A00A315016EA4C002F0000E0216000E0218B4
:10374A0002E1000E0118D8A480D0A3A927D094C002
:10375A00E9FF95C0EAFFEECF00F0EECF01F000C01E
:10376A00E9FF01C0EAFFEECFABF0EECFACF0EECF4F
:10377A00ADF0EECFAEF094C0E9FF95C0EAFF040EBB
:10378A00EE24006E000EEE20016E94C0E1FF95C09B
:10379A00E2FF00C0E6FF01C0E6FF2FD094C0E9FFB8
:1037AA0095C0EAFFEECF00F0EECF01F000C0E9FFCE
:1037BA0001C0EAFFEECF00F0EECF01F0000E01BE2D
:1037CA00FF0E026E036E00C0ABF001C0ACF002C087
:1037DA00ADF003C0AEF094C0E9FF95C0EAFF020E57
:1037EA00EE24006E000EEE20016E94C0E1FF95C03B
:1037FA00E2FF00C0E6FF01C0E6FF800EAE19006ED0
:10380A00800E005C08E1000EAD5D05E1000EAC5DC6
:10381A0002E1000EAB5D18E2030EA313000EA4131F
:10382A00006A016A026A036AAB51005EAC51015A2E
:10383A00AD51025AAE51035A00C0ABF001C0ACF010
:10384A0002C0ADF003C0AEF04ED0A3A927D094C0F9
:10385A00E9FF95C0EAFFEECF00F0EECF01F000C01D
:10386A00E9FF01C0EAFFEECFABF0EECFACF0EECF4E
:10387A00ADF0EECFAEF094C0E9FF95C0EAFF040EBA
:10388A00EE24006E000EEE20016E94C0E1FF95C09A
:10389A00E2FF00C0E6FF01C0E6FF25D094C0E9FFC1
:1038AA0095C0EAFFEECF00F0EECF01F000C0E9FFCD
:1038BA0001C0EAFFEECFABF0EECFACF0000EAD6F79
:1038CA00AE6F94C0E9FF95C0EAFF020EEE24006EC7
:1038DA00000EEE20016E94C0E1FF95C0E2FF00C029
:1038EA00E6FF01C0E6FF000E9F1902E1000E9E19D5
:1038FA000FE1000E006EAE1908E10050AD1905E1A6
:10390A000050AC1902E1AB51000A02E19E4B9F2B19
:10391A00C00EA315006E00C005F0AED0010EA06F58
:10392A00A0510A0A34E0A0C000F0000E016E026E37
:10393A00036E0036009001360236033600360090D8
:10394A00013602360336420E0024F66E540E01206A
:10395A00F76E000E0220F86E0900F5CF01F009009B
:10396A00F5CF02F00900F5CF03F00900F5CF04F016
:10397A000450AE5D08E10350AD5D05E10250AC5D57
:10398A0002E10150AB5D01E202D0A02BC9D782D07F
:10399A00010EA06FA051080A34E0A0C000F0000E8A
:1039AA00016E026E036E003600900136023603364F
:1039BA00003600900136023603366A0E0024F66E8F
:1039CA00540E0120F76E000E0220F86E0900F5CFA2
:1039DA0001F00900F5CF02F00900F5CF03F0090064
:1039EA00F5CF04F00450AE5D08E10350AD5D05E18A
:1039FA000250AC5D02E10150AB5D01E202D0A02BA6
:103A0A00C9D748D0010EA06FA0510C0A34E0A0C05B
:103A1A0000F0000E016E026E036E00360090013651
:103A2A000236033600360090013602360336120E8D
:103A3A000024F66E540E0120F76E000E0220F86E76
:103A4A000900F5CF01F00900F5CF02F00900F5CF22
:103A5A0003F00900F5CF04F00450AE5D08E103500D
:103A6A00AD5D05E10250AC5D02E10150AB5D01E2E2
:103A7A0002D0A02BC9D70ED00550000AD8B44ED711
:103A8A000550C00AD8B44AD70550800A81E00550CB
:103A9A00400AB8E0800E006E800E9F19005C02E1B9
:103AAA009E51A05D03E29EC0A0F00DD0800E9F192A
:103ABA00006E800E005C02E1A0519E5D04E2A0C08F
:103ACA009EF0000E9F6FA151A2110EE0030EA315E6
:103ADA00006EA4C001F0000E01160050011004E0AF
:103AEA00010EA15F000EA25B800E9F19006E800E70
:103AFA00A219005C02E1A1519E5D05E29E51A15FFF
:103B0A009F51A25B02D0A16BA26BC40EA315016EDA
:103B1A00A451080B026E0250080A02E1400E011875
:103B2A0008E1A151A21104E0010EA15F000EA25BFF
:103B3A001CD0C00EA315016EA451080B026E0250D0
:103B4A00080A02E1800E011810E1800E006E800E54
:103B5A00A219005C02E1A151020805E2020EA15F6E
:103B6A00000EA25B02D0A16BA26BA3A55DD0A3A39A
:103B7A0012D0A3A103D02D0E9A6F02D02B0E9A6FEA
:103B8A008FC0E1FF90C0E2FF9AC0E6FF8F4B902BF7
:103B9A00AF4BB02B34D0A3A10BD08FC0E1FF90C0A4
:103BAA00E2FF200EE66E8F4B902BAF4BB02B27D047
:103BBA00C00EA315016EA451080B026E0250080A2A
:103BCA0002E1800E01181BE18FC0E1FF90C0E2FF05
:103BDA00300EE66E8F4B902BAF4BB02BA3AB03D0BE
:103BEA00580E9B6F02D0780E9B6F8FC0E1FF90C07A
:103BFA00E2FF9BC0E6FF8F4B902BAF4BB02BA1513E
:103C0A00A21111E08FC0E1FF90C0E2FF300EE66E14
:103C1A008F4B902BAF4BB02B010EA15F000EA25B16
:103C2A00A151A211EFE174D0A151A21113E0A3B7DF
:103C3A0011D08FC0E1FF90C0E2FF200EE66E8F4BDD
:103C4A00902BAF4BB02B010EA15F000EA25BA151CE
:103C5A00A211EFE1A3A312D0A3A103D02D0E9C6F52
:103C6A0002D02B0E9C6F8FC0E1FF90C0E2FF9CC078
:103C7A00E6FF8F4B902BAF4BB02B0CD0A3A10AD0F1
:103C8A008FC0E1FF90C0E2FF200EE66E8F4B902BB3
:103C9A00AF4BB02BC00EA315016EA451080B026ED8
:103CAA000250080A02E1400E01180BE18FC0E1FF41
:103CBA0090C0E2FF300EE66E8F4B902BAF4BB02BCD
:103CCA0027D0C00EA315016EA451080B026E025034
:103CDA00080A02E1800E01181BE18FC0E1FF90C0C3
:103CEA00E2FF300EE66E8F4B902BAF4BB02BA3AB9F
:103CFA0003D0580E9D6F02D0780E9D6F8FC0E1FFE2
:103D0A0090C0E2FF9DC0E6FF8F4B902BAF4BB02BCC
:103D1A00800E006E800E9F19005C02E19E51A05D2C
:103D2A000BE28FC0E1FF90C0E2FF300EE66E8F4BD0
:103D3A00902BAF4BB02BECD79EC000F09FC001F088
:103D4A00010E9E5F000E9F5B00500110D8B42AD16D
:103D5A00C00EA315006E00C0B1F00AD19EC000F0DB
:103D6A009FC001F0000E9FBFFF0E026E036E003669
:103D7A0000900136023603360036009001360236CC
:103D8A000336420E0024F66E540E0120F76E000E22
:103D9A000220F86E0900F5CF04F00900F5CF05F00E
:103DAA000900F5CF06F00900F5CF07F0ABC000F027
:103DBA00ACC001F0ADC002F0AEC003F0E9EC0CF00B
:103DCA000A0E046E000E056E066E076EE9EC0CF024
:103DDA0008C000F009C001F00AC002F00BC003F0ED
:103DEA00300E0024A06FD3D0A3AB45D09EC000F004
:103DFA009FC001F0000E9FBFFF0E026E036E0036D9
:103E0A00009001360236033600360090013602363B
:103E1A0003366A0E0024F66E540E0120F76E000E69
:103E2A000220F86E0900F5CF04F00900F5CF05F07D
:103E3A000900F5CF06F00900F5CF07F0ABC000F096
:103E4A00ACC001F0ADC002F0AEC003F0E9EC0CF07A
:103E5A000F0E0016000E011602160316B90E0024E4
:103E6A00F66E540E0120F76E000E0220F86E09005D
:103E7A00F5CFA0F044D09EC000F09FC001F0000E24
:103E8A009FBFFF0E026E036E0036009001360236A7
:103E9A000336003600900136023603366A0E0024D5
:103EAA00F66E540E0120F76E000E0220F86E09001D
:103EBA00F5CF04F00900F5CF05F00900F5CF06F0BB
:103ECA000900F5CF07F0ABC000F0ACC001F0ADC0FF
:103EDA0002F0AEC003F0E9EC0CF00F0E0016000E73
:103EEA00011602160316A80E0024F66E540E0120BF
:103EFA00F76E000E0220F86E0900F5CFA0F047D049
:103F0A009EC000F09FC001F0000E9FBFFF0E026E20
:103F1A00036E0036009001360236033600360090F2
:103F2A00013602360336120E0024F66E540E0120B4
:103F3A00F76E000E0220F86E0900F5CF04F00900B2
:103F4A00F5CF05F00900F5CF06F00900F5CF07F027
:103F5A00ABC000F0ACC001F0ADC002F0AEC003F0DF
:103F6A00E9EC0CF0070E0014A06F300EA0270FD05A
:103F7A00B151000AD8B4F2D6B151C00AD8B4EED6BB
:103F8A00B151800AD8B430D7B151400AB9E08FC0D4
:103F9A00E1FF90C0E2FFA0C0E6FF8F4B902BAF4B32
:103FAA00B02BCAD6A3A71AD0800E006E800EA21913
:103FBA00005C02E1A151000811E28FC0E1FF90C04C
:103FCA00E2FF200EE66E8F4B902BAF4BB02B010E0B
:103FDA00A15F000EA25BA151A211EFE1EAEF0FF07F
:0A3FEA00AFC000F0B0C001F01200FB
:103FF40082907BC0E1FF7CC0E2FF020EE66E79C0D6
:1040040000F07AC001F047EC01F07BC0E1FF7CC016
:10401400E2FFFF0EE66E79C000F07AC001F047ECD3
:1040240001F07BC0E1FF7CC0E2FF8FC0E6FF79C0F6
:1040340000F07AC001F047EC01F082806DEC02F0F0
:104044000001905330E082907BC0E1FF7CC0E2FF2E
:10405400030EE66E79C000F07AC001F047EC01F07F
:104064007BC0E1FF7CC0E2FFFE0EE66E79C000F08B
:104074007AC001F047EC01F07BC0E1FF7CC0E2FFB5
:10408400E66A79C000F07AC001F047EC01F000C0A4
:1040940091F082806DEC02F0E00E00019115016E4A
:0840A40001508F19D0E1120058
:0C40AC00060E0D6E0D2EFED70000120057
:1040B80000018F079007910792079307060E006E7D
:1040C8008FC095F0005004E095379591FF0FFBD70E
:1040D8009051951382907BC0E1FF7CC0E2FF020EF5
:1040E800E66E79C000F07AC001F047EC01F07BC0C1
:1040F800E1FF7CC0E2FF2A0EE66E79C000F07AC0CC
:1041080001F047EC01F07BC0E1FF7CC0E2FF95C005
:10411800E6FF79C000F07AC001F047EC01F0828038
:104128006DEC02F091C095F00001953795919537A7
:104138009591953795919351951394B501D0958D97
:1041480094A101D0958F82907BC0E1FF7CC0E2FFF3
:10415800020EE66E79C000F07AC001F047EC01F07B
:104168007BC0E1FF7CC0E2FF290EE66E79C000F05B
:104178007AC001F047EC01F07BC0E1FF7CC0E2FFB0
:1041880095C0E6FF79C000F07AC001F047EC01F075
:1041980082806DEC02F092C095F0000194A301D0EA
:1041A800958D82907BC0E1FF7CC0E2FF020EE66E37
:1041B80079C000F07AC001F047EC01F07BC0E1FF64
:1041C8007CC0E2FF280EE66E79C000F07AC001F0EC
:1041D80047EC01F07BC0E1FF7CC0E2FF95C0E6FF41
:1041E80079C000F07AC001F047EC01F082806DECF4
:0441F80002F01200BF
:1041FC0012D00001956B20D0040E956F1DD0080EC7
:10420C00956F1AD0100E956F17D0140E956F14D0A1
:10421C00180E956F11D000018F51000AEAE08F51F2
:10422C00010AEAE08F51020AEAE08F51030AEAE040
:10423C008F51040AEAE0ECD795C0B7F090C0B8F003
:10424C0091C0B9F092C0BAF093C0BBF094C0BCF06E
:06425C0080EC07F01200E7
:1042620000018F51000A0FE1200EB76F90C0B8F025
:1042720091C0B9F092C0BAF093C0BBF094C0BCF048
:1042820080EC07F00FD0240E0001B76F90C0B8F099
:1042920091C0B9F092C0BAF093C0BBF094C0BCF028
:0642A20080EC07F01200A1
:1042A800880E00018C6F000E8D6F83C08FF084C064
:1042B80090F085C091F086C092F087C093F08C0E84
:1042C800946F000E956FE5EC0FF000C08AF001C006
:1042D8008BF000508325E16E01508421E26EE66A7E
:0A42E8008AC000F08BC001F0120044
:1042F20089C0E1FF8AC0E2FFE66A82907BC0E1FFEB
:104302007CC0E2FF030EE66E79C000F07AC001F0D5
:1043120047EC01F07BC0E1FF7CC0E2FF2C0EE66EB1
:1043220079C000F07AC001F047EC01F07BC0E1FFF8
:104332007CC0E2FFE66A79C000F07AC001F047EC87
:1043420001F000C08BF082806DEC02F000018BA1C5
:10435200E5D0FF0E8E6F82907BC0E1FF7CC0E2FF52
:10436200050EE66E79C000F07AC001F047EC01F06C
:104372007BC0E1FF7CC0E2FF2C0EE66E79C000F04C
:104382007AC001F047EC01F07BC0E1FF7CC0E2FFA4
:10439200010EE66E79C000F07AC001F047EC01F040
:1043A2007BC0E1FF7CC0E2FFE66A79C000F07AC020
:1043B20001F047EC01F082806DEC02F06DEC02F04E
:1043C20082907BC0E1FF7CC0E2FF030EE66E79C003
:1043D20000F07AC001F047EC01F07BC0E1FF7CC045
:1043E200E2FF2D0EE66E79C000F07AC001F047ECD4
:1043F20001F07BC0E1FF7CC0E2FFE66A79C000F019
:104402007AC001F047EC01F000C08BF082806DECC5
:1044120002F000018BAF3CD089C0E9FF8AC0EAFFFD
:1044220089C0E1FF8AC0E2FFE68682907BC0E1FF9D
:104432007CC0E2FF050EE66E79C000F07AC001F0A2
:1044420047EC01F07BC0E1FF7CC0E2FF2D0EE66E7F
:1044520079C000F07AC001F047EC01F07BC0E1FFC7
:104462007CC0E2FF800EE66E79C000F07AC001F0F7
:1044720047EC01F07BC0E1FF7CC0E2FFE66A79C055
:1044820000F07AC001F047EC01F082806DEC02F09E
:104492006DEC02F082907BC0E1FF7CC0E2FF030E74
:1044A200E66E79C000F07AC001F047EC01F07BC003
:1044B200E1FF7CC0E2FF600EE66E79C000F07AC0D8
:1044C20001F047EC01F07BC0E1FF7CC0E2FFE66A4D
:1044D20079C000F07AC001F047EC01F000C08BF027
:1044E20082806DEC02F000018BA517D0070E8B15B0
:1044F200006E89C0E9FF8AC0EAFF89C0E1FF8AC075
:10450200E2FF0050EE1289C0E9FF8AC0EAFF89C0CB
:10451200E1FF8AC0E2FF010EEE161BD189C0E1FF66
:104522008AC0E2FFE66A82907BC0E1FF7CC0E2FFC4
:10453200030EE66E79C000F07AC001F047EC01F09C
:104542007BC0E1FF7CC0E2FF2C0EE66E79C000F07A
:104552007AC001F047EC01F07BC0E1FF7CC0E2FFD2
:10456200E66A79C000F07AC001F047EC01F000C0C1
:104572008BF082806DEC02F000018BA3E8D08E6B91
:1045820082907BC0E1FF7CC0E2FF050EE66E79C03F
:1045920000F07AC001F047EC01F07BC0E1FF7CC083
:1045A200E2FF2C0EE66E79C000F07AC001F047EC13
:1045B20001F07BC0E1FF7CC0E2FF020EE66E79C033
:1045C20000F07AC001F047EC01F07BC0E1FF7CC053
:1045D200E2FFE66A79C000F07AC001F047EC01F030
:1045E20082806DEC02F06DEC02F082907BC0E1FF04
:1045F2007CC0E2FF030EE66E79C000F07AC001F0E3
:1046020047EC01F07BC0E1FF7CC0E2FF2D0EE66EBD
:1046120079C000F07AC001F047EC01F07BC0E1FF05
:104622007CC0E2FFE66A79C000F07AC001F047EC94
:1046320001F000C08BF082806DEC02F000018BADC6
:104642003CD089C0E9FF8AC0EAFF89C0E1FF8AC085
:10465200E2FFE68682907BC0E1FF7CC0E2FF050EAE
:10466200E66E79C000F07AC001F047EC01F07BC041
:10467200E1FF7CC0E2FF2D0EE66E79C000F07AC049
:1046820001F047EC01F07BC0E1FF7CC0E2FF400E8D
:10469200E66E79C000F07AC001F047EC01F07BC011
:1046A200E1FF7CC0E2FFE66A79C000F07AC001F067
:1046B20047EC01F082806DEC02F06DEC02F082902A
:1046C2007BC0E1FF7CC0E2FF030EE66E79C000F022
:1046D2007AC001F047EC01F07BC0E1FF7CC0E2FF51
:1046E200700EE66E79C000F07AC001F047EC01F07E
:1046F2007BC0E1FF7CC0E2FFE66A79C000F07AC0CD
:1047020001F047EC01F000C08BF082806DEC02F00A
:10471200070E00018B15006E89C0E9FF8AC0EAFF0F
:1047220089C0E1FF8AC0E2FF0050EE1289C0E9FFB2
:104732008AC0EAFF020EEE5C09E289C0E9FF8AC084
:10474200EAFF89C0E1FF8AC0E2FFE68E02D0006A7A
:1047520015D182907BC0E1FF7CC0E2FF030EE66EC2
:1047620079C000F07AC001F047EC01F000018E53ED
:104772001AE07BC0E1FF7CC0E2FF650EE66E79C005
:1047820000F07AC001F047EC01F07BC0E1FF7CC091
:10479200E2FFE66A79C000F07AC001F047EC01F06E
:1047A20000C08BF019D07BC0E1FF7CC0E2FF750E28
:1047B200E66E79C000F07AC001F047EC01F07BC0F0
:1047C200E1FF7CC0E2FFE66A79C000F07AC001F046
:1047D20047EC01F000C08BF082806DEC02F087C0E4
:1047E200E1FF88C0E2FF8BC0E6FF00018BAD09D07C
:1047F20089C0E9FF8AC0EAFF89C0E1FF8AC0E2FFFF
:10480200E68C82907BC0E1FF7CC0E2FF030EE66E85
:1048120079C000F07AC001F047EC01F000018E533C
:104822001DE07BC0E1FF7CC0E2FF620EE66E79C054
:1048320000F07AC001F047EC01F07BC0E1FF7CC0E0
:10484200E2FFE66A79C000F07AC001F047EC01F0BD
:1048520000C08BF0610E00018D6F1CD07BC0E1FFA8
:104862007CC0E2FF720EE66E79C000F07AC001F001
:1048720047EC01F07BC0E1FF7CC0E2FFE66A79C051
:1048820000F07AC001F047EC01F000C08BF0710E2D
:1048920000018D6F82806DEC02F08BA71CD089C065
:1048A200E9FF8AC0EAFF89C0E1FF8AC0E2FFE68A27
:1048B2008DC08FF0F70E906FA2EC0EF083C0E1FF77
:1048C20084C0E2FF00C0E6FF01C0E6FF02C0E6FFCF
:1048D20003C0E6FF12D08DC08FF0FF0E906FA2ECE6
:1048E2000EF083C0E1FF84C0E2FF00C0E6FF01C01A
:1048F200E6FF02C0E6FF03C0E6FF050E8D278290A9
:104902007BC0E1FF7CC0E2FF030EE66E79C000F0DF
:104912007AC001F047EC01F07BC0E1FF7CC0E2FF0E
:104922008DC0E6FF79C000F07AC001F047EC01F0DB
:1049320000018C6B87C0D9FF88C0DAFFDE508C5D26
:1049420018E27BC0E1FF7CC0E2FFE66A79C000F0BA
:104952007AC001F047EC01F000C08BF000018C51ED
:104962008525E16E000E8621E26E00C0E6FF8C2BEB
:0E497200E1D782806DEC02F0FF0E006E1200A5
:1049800083C002F084C003F086C000F087C001F04D
:10499000010E0001865F000E875B0050011009E0E8
:1049A00002C0E1FF03C0E2FF85C0E6FF024A032A1E
:0C49B000EBD783C000F084C001F01200BF
:1049BC0010D0800E0001836F1AD0C00E836F17D0F9
:1049CC00940E836F14D0D40E836F11D0800E836F2E
:1049DC000ED000018351010AECE08351020AEDE094
:1049EC008351030AEDE08351040AEDE0EFD784050F
:1049FC00006E8351002600C083F000C0B7F05FEC5E
:104A0C000EF06091876B87518525E96E000E86212B
:104A1C00EA6EEE520CE087518525E96E000E862178
:104A2C00EA6EEECF8FF0D1EC0FF0872BECD76081D4
:024A3C00120066
:104A3E0082907BC0E1FF7CC0E2FF030EE66E79C080
:104A4E0000F07AC001F047EC01F07BC0E1FF7CC0C2
:104A5E00E2FF300EE66E79C000F07AC001F047EC4E
:104A6E0001F07BC0E1FF7CC0E2FFE66A79C000F096
:104A7E007AC001F047EC01F000C08BF082806DEC43
:104A8E0002F000018BB702D08B6B60D082907BC09E
:104A9E00E1FF7CC0E2FF030EE66E79C000F07AC043
:104AAE0001F047EC01F07BC0E1FF7CC0E2FF400E5D
:104ABE00E66E79C000F07AC001F047EC01F07BC0E1
:104ACE00E1FF7CC0E2FFE66A79C000F07AC001F037
:104ADE0047EC01F000C08BF082806DEC02F000011B
:104AEE008BB703D0100E8B6F31D082907BC0E1FF5D
:104AFE007CC0E2FF030EE66E79C000F07AC001F0D2
:104B0E0047EC01F07BC0E1FF7CC0E2FF500EE66E89
:104B1E0079C000F07AC001F047EC01F07BC0E1FFF4
:104B2E007CC0E2FFE66A79C000F07AC001F047EC83
:104B3E0001F000C08BF082806DEC02F000018BB7AB
:104B4E0003D0200E8B6F02D0006AEFD0300E8B2771
:104B5E0082907BC0E1FF7CC0E2FF020EE66E79C060
:104B6E0000F07AC001F047EC01F07BC0E1FF7CC0A1
:104B7E00E2FF8BC0E6FF79C000F07AC001F047EC8F
:104B8E0001F0030E00018A15006E00C08DF07BC08F
:104B9E00E1FF7CC0E2FF00C0E6FF79C000F07AC002
:104BAE0001F047EC01F082806DEC02F000018AB753
:104BBE0003D0F70E8D6F02D0FF0E8D6F8B51010F4C
:104BCE00B76F83C0B8F084C0B9F085C0BAF086C0A4
:104BDE00BBF08DC0BCF080EC07F089C08DF00001F9
:104BEE008ABD01D08D8D82907BC0E1FF7CC0E2FF3B
:104BFE00020EE66E79C000F07AC001F047EC01F0CB
:104C0E00050E00018B25006E7BC0E1FF7CC0E2FF2C
:104C1E0000C0E6FF79C000F07AC001F047EC01F069
:104C2E007BC0E1FF7CC0E2FF8DC0E6FF79C000F0E3
:104C3E007AC001F047EC01F082806DEC02F06DEC71
:104C4E0002F082907BC0E1FF7CC0E2FF020EE66EB6
:104C5E0079C000F07AC001F047EC01F0060E0001B9
:104C6E008B25006E7BC0E1FF7CC0E2FF00C0E6FF3B
:104C7E0079C000F07AC001F047EC01F000018C6BB6
:104C8E0089518C5D15E28C518725E96E000E8821C5
:104C9E00EA6E7BC0E1FF7CC0E2FFEECFE6FF79C09B
:104CAE0000F07AC001F047EC01F000018C2BE8D740
:104CBE0082806DEC02F06DEC02F0829027D07BC00A
:104CCE00E1FF7CC0E2FF810EE66E79C000F07AC093
:104CDE0001F047EC01F024D07BC0E1FF7CC0E2FF85
:104CEE00820EE66E79C000F07AC001F047EC01F05A
:104CFE0017D07BC0E1FF7CC0E2FF830EE66E79C069
:104D0E0000F07AC001F047EC01F00AD000018B519F
:104D1E00300AD5E08B51400ADFE08B51500AE9E0B2
:0C4D2E0082806DEC02F0FF0E006E12009F
:104D3A00C26A070EC012C08E83C000F0003600900F
:104D4A00003600900050C212C280DFEC0FF0C2821F
:104D5A00C2A201D0FDD7C4CF01F0006AC35000122D
:084D6A00000E0112C2901200BC
:104D72000001866B83C0E9FF84C0EAFFEECF85F0B5
:104D82008551000A0FE085C08FF0D8EC0FF00001CA
:104D9200862B86518325E96E000E8421EA6EEECFC2
:064DA20085F0EED71200BF
:104DA800939A93989390939293949396819A8198D7
:104DB800819681948192819070EC02F070EC02F0FF
:104DC80070EC02F081828180818A6DEC02F0819A18
:104DD80070EC02F0818A6DEC02F0819A70EC02F0BE
:104DE800818A6DEC02F0819A70EC02F08190818AE0
:104DF8006DEC02F0819A70EC02F0818A6DEC02F0A1
:104E0800819A81928186818A6DEC02F0819A70EC98
:104E180002F081968180818A6DEC02F0819A8190FE
:104E2800818A6DEC02F0819A70EC02F0818A6DEC57
:104E380002F0819A8180818A6DEC02F0819A70EC8F
:104E480002F08190818A6DEC02F0819A81868184DA
:104E580081828180818A6DEC02F0819A70EC02F087
:064E680000016081120050
:104E6E00FF0E00017D6FFF0E7E6FFF0E7F6FFF0E38
:0E4E7E00806FC26A070EC012C08EC280120082
:104E8C000900F5CFE6FF0006FBE10106F9E112008F
:104E9C009494949082848280829456EC20F0828444
:104EAC0056EC20F0800E00018F6FFF0E906FFAEC25
:104EBC001FF083C08FF084C090F085C091F086C045
:104ECC0092F087C093F088C094F05CEC20F0600EF8
:104EDC0000018815896F100E8815016E0150100A9B
:104EEC00D8B4898582907BC0E1FF7CC0E2FF020EC2
:104EFC00E66E79C000F07AC001F047EC01F07BC09F
:104F0C00E1FF7CC0E2FF600EE66E79C000F07AC073
:104F1C0001F047EC01F07BC0E1FF7CC0E2FF89C0EF
:104F2C00E6FF79C000F07AC001F047EC01F0828016
:104F3C006DEC02F06DEC02F082907BC0E1FF7CC066
:104F4C00E2FF020EE66E79C000F07AC001F047EC89
:104F5C0001F07BC0E1FF7CC0E2FF700EE66E79C011
:104F6C0000F07AC001F047EC01F07BC0E1FF7CC09F
:104F7C00E2FF89C0E6FF79C000F07AC001F047EC8F
:104F8C0001F082806DEC02F000018F6B906B916BE5
:104F9C00926B936BF70E946F31EC21F0010E0001C4
:104FAC008F6F906B916B926B936BF70E946F31ECE0
:104FBC0021F0600E00018815006E9F0E0010016E2E
:104FCC000FD0F70E8A6FF70E8B6F11D0FF0E8A6F12
:104FDC00FF0E8B6F0CD0FF0E8A6FF70E8B6F07D006
:104FEC000150DF0AEEE00150BF0AF0E0F4D78F6BFE
:104FFC00906B916B926B936B8AC094F0FEEC20F0EB
:10500C00010E00018F6F906B916B926B936B8AC04A
:10501C0094F0FEEC20F0020E0001896F8951050816
:10502C000DE389C08FF0906B916B926B936B8BC07F
:10503C0094F0FEEC20F00001892BF0D78F6BFF0E63
:08504C00906FFAEC1FF0120056
:10505400C69A580E0001796F020E7A6FBE0E7B6FEE
:10506400000E7C6FFF0E546EFF0E556EFF0E566ED3
:10507400FF0E576E949A94969488C66A400EC76E33
:04508400C68A1200C6
:10508800B00E506E1F0E516E8F0E526E000E536E84
:10509800FF0E0001616FFF0E626F000E636F000E5E
:1050A800646FFF0E5C6EFF0E5D6E000E5E6E000E8E
:1050B8005F6EFF0E586EFF0E596E000E5A6E000E90
:1050C8005B6EAC8A900EAB6E948E949C9EAA03D0B5
:0850D800AECF00F0FBD712007F
:1050E00073EC2AF0010E0F01386F396B3A6B3B6B92
:1050F000799E789E956A010E926E936A946A4E6AC2
:105100004D6A4C6AB4DE50DEB886B06ACF0EAF6E20
:10511000AC84BADF030E0B6E080E0C6E770E0D6EAC
:105120000D2EFED70C2EFCD70B2EFAD7F40E4D6E9B
:10513000D30E4E6E8FDF010E836F030E846F030E4E
:10514000856F030E866F010E876F4EC088F0A6DE56
:10515000800E8F6FFF0E906FFAEC1FF08F6BFF0EBB
:10516000906FFF0E916F926F936FF70E946F31EC0B
:1051700021F0010E00018F6FFF0E906FFF0E916FF7
:10518000926F936FF70E946F31EC21F0050E0001D2
:105190008F6F4F0E906F2F0E916F000E926F000E5B
:1051A000936FF70E946FFEEC20F000018F6BFF0EF3
:1051B000906FFAEC1FF0010EB76F5FEC0EF0010E6E
:1051C000836F010E846F240E856F000E866FDEECF8
:1051D00024F01C0E836F000E846F856B080E866FA3
:1051E000000E876FC0EC24F0480E836F000E846FB2
:1051F0001C0E856F000E866F370E876F000E886F4E
:105200004C0E896F000E8A6F79EC21F000C04FF0D0
:105210004B50000A08E14A50000A05E149502F0AA4
:1052200002E148504F0A49E14F5247E0356A366A79
:10523000800E3618006E800E005C02E1080E355CB0
:1052400032E21C0E3524E96E000E3620EA6EEECFF7
:1052500033F0000E346E000E346E380E836F000E85
:10526000846FCA0E856F540E866F000E876F33C031
:1052700088F034C089F054EC21F0380E836F000EB2
:10528000846F77DD190E836F000E846F72DD1A0E46
:105290000C6EF80E0D6E0D2EFED70C2EFCD70000F6
:1052A000354A362AC5D7150E836F000E846F61DD2F
:1052B000290E836F000E846F5CDD1C0E836F000E61
:1052C000846F856B080E866F000E876FC0EC24F02C
:1052D000836B33DD00C002F001C003F00332023201
:1052E000039E03320232039E02C077F003C078F0BF
:1052F00000017651031802E10250751946E077C0AB
:1053000075F078C076F0650E836F000E846F856B44
:10531000100E866F000E876FC0EC24F0650E836F51
:10532000000E846FDA0E856F540E866F000E876F45
:1053300077C088F078C089F054EC21F0020E836FBA
:10534000010E846F650E856F000E866FDEEC24F013
:105350000C0EB76F5FEC0EF077C01CF081C01DF033
:10536000030E836F000E846F000E856F000E866F34
:105370001C0E876F000E886F010E896F4DC08AF07A
:105380001FEC25F00001814B822B0B0E0B6E260EBD
:105390000C6E5D0E0D6E0D2EFED70C2EFCD70B2E57
:0A53A000FAD70000000015D7FFD770
:1054E60010EE15F01E0E006E010E016E8A0EF66E9F
:0E54F600540EF76E000EF86E46EC27F0120012
:1053AA000000007FCDCC4C7B0AD723786F1203759F
:1053BA0017B75171ACC5276EBD37066B95BF5667D7
:1053CA0077CC2B645F700961FFE65B5D08E53C3CC6
:0453DA006042221BF0
:1053DE000000007F000020820000488500007A88CF
:1053EE0000401C8C0050438F0024749280961896B7
:1053FE0020BC3E99286B6E9CF90215A0EC782DC14D
:04540E00CAF249E2B3
:10541200010000000800000040000000000200003F
:1054220000100000008000000000040000002000C6
:105432000000000100000008000000400000000021
:10544200010000000A00000064000000E803000000
:1054520010270000A086010040420F0080969800AD
:0854620000E1F50500CA9A3BC8
:10546A000100000010000000000100000010000010
:10547A000000010000001000000000010000001000
:04548A00656E6400E7
:03548E000A0D0004
:08549100000000000000000013
:05549900796F6C30008A
:03549E000A0D00F4
:0754A100286E756C6C2900F8
:1054A8003031323334353637383961626364656692
:0154B80000F3
:1054B9003031323334353637383941424344454641
:0154C90000E2
:1054CA006E62722072637664203A2025303464005A
:0B54DA006E6272203A2025303464001E
:020000040030CA
:0D000100231F3CFFBF81FF0FC00FE00F4029
:00000001FF
